{
  "contractName": "TATOReserves",
  "abi": [
    {
      "inputs": [
        {
          "internalType": "address",
          "name": "reserveToken_",
          "type": "address"
        },
        {
          "internalType": "address",
          "name": "tatoAddress_",
          "type": "address"
        }
      ],
      "payable": false,
      "stateMutability": "nonpayable",
      "type": "constructor"
    },
    {
      "anonymous": false,
      "inputs": [
        {
          "indexed": false,
          "internalType": "address",
          "name": "oldGov",
          "type": "address"
        },
        {
          "indexed": false,
          "internalType": "address",
          "name": "newGov",
          "type": "address"
        }
      ],
      "name": "NewGov",
      "type": "event"
    },
    {
      "anonymous": false,
      "inputs": [
        {
          "indexed": false,
          "internalType": "address",
          "name": "oldPendingGov",
          "type": "address"
        },
        {
          "indexed": false,
          "internalType": "address",
          "name": "newPendingGov",
          "type": "address"
        }
      ],
      "name": "NewPendingGov",
      "type": "event"
    },
    {
      "anonymous": false,
      "inputs": [
        {
          "indexed": false,
          "internalType": "address",
          "name": "oldRebaser",
          "type": "address"
        },
        {
          "indexed": false,
          "internalType": "address",
          "name": "newRebaser",
          "type": "address"
        }
      ],
      "name": "NewRebaser",
      "type": "event"
    },
    {
      "constant": true,
      "inputs": [],
      "name": "gov",
      "outputs": [
        {
          "internalType": "address",
          "name": "",
          "type": "address"
        }
      ],
      "payable": false,
      "stateMutability": "view",
      "type": "function"
    },
    {
      "constant": true,
      "inputs": [],
      "name": "pendingGov",
      "outputs": [
        {
          "internalType": "address",
          "name": "",
          "type": "address"
        }
      ],
      "payable": false,
      "stateMutability": "view",
      "type": "function"
    },
    {
      "constant": true,
      "inputs": [],
      "name": "rebaser",
      "outputs": [
        {
          "internalType": "address",
          "name": "",
          "type": "address"
        }
      ],
      "payable": false,
      "stateMutability": "view",
      "type": "function"
    },
    {
      "constant": true,
      "inputs": [],
      "name": "reserveToken",
      "outputs": [
        {
          "internalType": "address",
          "name": "",
          "type": "address"
        }
      ],
      "payable": false,
      "stateMutability": "view",
      "type": "function"
    },
    {
      "constant": true,
      "inputs": [],
      "name": "tatoAddress",
      "outputs": [
        {
          "internalType": "address",
          "name": "",
          "type": "address"
        }
      ],
      "payable": false,
      "stateMutability": "view",
      "type": "function"
    },
    {
      "constant": false,
      "inputs": [
        {
          "internalType": "address",
          "name": "rebaser_",
          "type": "address"
        }
      ],
      "name": "_setRebaser",
      "outputs": [],
      "payable": false,
      "stateMutability": "nonpayable",
      "type": "function"
    },
    {
      "constant": false,
      "inputs": [
        {
          "internalType": "address",
          "name": "pendingGov_",
          "type": "address"
        }
      ],
      "name": "_setPendingGov",
      "outputs": [],
      "payable": false,
      "stateMutability": "nonpayable",
      "type": "function"
    },
    {
      "constant": false,
      "inputs": [],
      "name": "_acceptGov",
      "outputs": [],
      "payable": false,
      "stateMutability": "nonpayable",
      "type": "function"
    },
    {
      "constant": false,
      "inputs": [
        {
          "internalType": "address",
          "name": "newReserve",
          "type": "address"
        },
        {
          "internalType": "address[]",
          "name": "tokens",
          "type": "address[]"
        }
      ],
      "name": "migrateReserves",
      "outputs": [],
      "payable": false,
      "stateMutability": "nonpayable",
      "type": "function"
    },
    {
      "constant": true,
      "inputs": [],
      "name": "reserves",
      "outputs": [
        {
          "internalType": "uint256",
          "name": "",
          "type": "uint256"
        }
      ],
      "payable": false,
      "stateMutability": "view",
      "type": "function"
    }
  ],
  "bytecode": "0x608060405234801561001057600080fd5b50604051610d0b380380610d0b8339818101604052604081101561003357600080fd5b508051602090910151600080546001600160a01b039384166001600160a01b03199182161790915560048054939092169281169290921790556001805490911633179055610c85806100866000396000f3fe608060405234801561001057600080fd5b50600436106100be5760003560e01c80634bda2e201161007657806375172a8b1161005b57806375172a8b14610209578063f4325d6714610223578063fa8f34551461022b576100be565b80634bda2e20146101ce57806373f03dff146101d6576100be565b806312d43a51116100a757806312d43a51146101b657806315356310146101be57806325240810146101c6576100be565b8063078e9d53146100c357806311fd8a8314610185575b600080fd5b610183600480360360408110156100d957600080fd5b73ffffffffffffffffffffffffffffffffffffffff823516919081019060408101602082013564010000000081111561011157600080fd5b82018360208201111561012357600080fd5b8035906020019184602083028401116401000000008311171561014557600080fd5b91908080602002602001604051908101604052809392919081815260200183836020028082843760009201919091525092955061025e945050505050565b005b61018d61036d565b6040805173ffffffffffffffffffffffffffffffffffffffff9092168252519081900360200190f35b61018d610389565b61018d6103a5565b61018d6103c1565b6101836103dd565b610183600480360360208110156101ec57600080fd5b503573ffffffffffffffffffffffffffffffffffffffff166104f6565b6102116105a2565b60408051918252519081900360200190f35b61018d610645565b6101836004803603602081101561024157600080fd5b503573ffffffffffffffffffffffffffffffffffffffff16610661565b60015473ffffffffffffffffffffffffffffffffffffffff16331461028257600080fd5b60005b815181101561036857600082828151811061029c57fe5b6020026020010151905060008173ffffffffffffffffffffffffffffffffffffffff166370a08231306040518263ffffffff1660e01b8152600401808273ffffffffffffffffffffffffffffffffffffffff1673ffffffffffffffffffffffffffffffffffffffff16815260200191505060206040518083038186803b15801561032557600080fd5b505afa158015610339573d6000803e3d6000fd5b505050506040513d602081101561034f57600080fd5b5051905061035e82868361089f565b5050600101610285565b505050565b60035473ffffffffffffffffffffffffffffffffffffffff1681565b60015473ffffffffffffffffffffffffffffffffffffffff1681565b60045473ffffffffffffffffffffffffffffffffffffffff1681565b60025473ffffffffffffffffffffffffffffffffffffffff1681565b60025473ffffffffffffffffffffffffffffffffffffffff16331461046357604080517f08c379a000000000000000000000000000000000000000000000000000000000815260206004820152600860248201527f2170656e64696e67000000000000000000000000000000000000000000000000604482015290519081900360640190fd5b60018054600280547fffffffffffffffffffffffff000000000000000000000000000000000000000080841673ffffffffffffffffffffffffffffffffffffffff838116919091179586905591169091556040805192821680845293909116602083015280517f1f14cfc03e486d23acee577b07bc0b3b23f4888c91fcdba5e0fef5a2549d55239281900390910190a150565b60015473ffffffffffffffffffffffffffffffffffffffff16331461051a57600080fd5b6002805473ffffffffffffffffffffffffffffffffffffffff8381167fffffffffffffffffffffffff0000000000000000000000000000000000000000831681179093556040805191909216808252602082019390935281517f6163d5b9efd962645dd649e6e48a61bcb0f9df00997a2398b80d135a9ab0c61e929181900390910190a15050565b60008054604080517f70a08231000000000000000000000000000000000000000000000000000000008152306004820152905173ffffffffffffffffffffffffffffffffffffffff909216916370a0823191602480820192602092909190829003018186803b15801561061457600080fd5b505afa158015610628573d6000803e3d6000fd5b505050506040513d602081101561063e57600080fd5b5051905090565b60005473ffffffffffffffffffffffffffffffffffffffff1681565b60015473ffffffffffffffffffffffffffffffffffffffff16331461068557600080fd5b60035460048054604080517fa457c2d700000000000000000000000000000000000000000000000000000000815273ffffffffffffffffffffffffffffffffffffffff9485169381018490527fffffffffffffffffffffffffffffffffffffffffffffffffffffffffffffffff6024820152905192939091169163a457c2d7916044808201926020929091908290030181600087803b15801561072757600080fd5b505af115801561073b573d6000803e3d6000fd5b505050506040513d602081101561075157600080fd5b5050600380547fffffffffffffffffffffffff00000000000000000000000000000000000000001673ffffffffffffffffffffffffffffffffffffffff84811691821790925560048054604080517f095ea7b3000000000000000000000000000000000000000000000000000000008152928301939093527fffffffffffffffffffffffffffffffffffffffffffffffffffffffffffffffff60248301529151919092169163095ea7b39160448083019260209291908290030181600087803b15801561081d57600080fd5b505af1158015610831573d6000803e3d6000fd5b505050506040513d602081101561084757600080fd5b50506040805173ffffffffffffffffffffffffffffffffffffffff80841682528416602082015281517f51f448520e2183de499e224808a409ee01a1f380edb2e8497572320c15030545929181900390910190a15050565b6040805173ffffffffffffffffffffffffffffffffffffffff8416602482015260448082018490528251808303909101815260649091019091526020810180517bffffffffffffffffffffffffffffffffffffffffffffffffffffffff167fa9059cbb000000000000000000000000000000000000000000000000000000001790526103689084906060610989826040518060400160405280602081526020017f5361666545524332303a206c6f772d6c6576656c2063616c6c206661696c65648152508573ffffffffffffffffffffffffffffffffffffffff166109ff9092919063ffffffff16565b805190915015610368578080602001905160208110156109a857600080fd5b5051610368576040517f08c379a000000000000000000000000000000000000000000000000000000000815260040180806020018281038252602a815260200180610c27602a913960400191505060405180910390fd5b6060610a0e8484600085610a16565b949350505050565b6060610a2185610c20565b610a8c57604080517f08c379a000000000000000000000000000000000000000000000000000000000815260206004820152601d60248201527f416464726573733a2063616c6c20746f206e6f6e2d636f6e7472616374000000604482015290519081900360640190fd5b600060608673ffffffffffffffffffffffffffffffffffffffff1685876040518082805190602001908083835b60208310610af657805182527fffffffffffffffffffffffffffffffffffffffffffffffffffffffffffffffe09092019160209182019101610ab9565b6001836020036101000a03801982511681845116808217855250505050505090500191505060006040518083038185875af1925050503d8060008114610b58576040519150601f19603f3d011682016040523d82523d6000602084013e610b5d565b606091505b50915091508115610b71579150610a0e9050565b805115610b815780518082602001fd5b836040517f08c379a00000000000000000000000000000000000000000000000000000000081526004018080602001828103825283818151815260200191508051906020019080838360005b83811015610be5578181015183820152602001610bcd565b50505050905090810190601f168015610c125780820380516001836020036101000a031916815260200191505b509250505060405180910390fd5b3b15159056fe5361666545524332303a204552433230206f7065726174696f6e20646964206e6f742073756363656564a265627a7a723158207f785ef0eaba61e3b0ac40322883a42c4b08052cca817b4f89790ad79a4fa8cd64736f6c63430005110032",
  "source": "pragma solidity 0.5.17;\n\nimport \"../lib/IERC20.sol\";\nimport \"../lib/SafeERC20.sol\";\nimport \"../token/TATOTokenInterface.sol\";\n\ncontract TATOReserves {\n\n    // Token that serves as a reserve for TATO\n    address public reserveToken;\n\n    address public gov;\n\n    address public pendingGov;\n\n    address public rebaser;\n\n    address public tatoAddress;\n\n    /*** Gov Events ***/\n\n    /**\n     * @notice Event emitted when pendingGov is changed\n     */\n    event NewPendingGov(address oldPendingGov, address newPendingGov);\n\n    /**\n     * @notice Event emitted when gov is changed\n     */\n    event NewGov(address oldGov, address newGov);\n\n    /**\n     * @notice Event emitted when rebaser is changed\n     */\n    event NewRebaser(address oldRebaser, address newRebaser);\n\n\n    modifier onlyGov() {\n        require(msg.sender == gov);\n        _;\n    }\n\n    constructor(\n        address reserveToken_,\n        address tatoAddress_\n    )\n        public\n    {\n        reserveToken = reserveToken_;\n        tatoAddress = tatoAddress_;\n        gov = msg.sender;\n    }\n\n    function _setRebaser(address rebaser_)\n        external\n        onlyGov\n    {\n        address oldRebaser = rebaser;\n        TATOTokenInterface(tatoAddress).decreaseAllowance(oldRebaser, uint256(-1));\n        rebaser = rebaser_;\n        TATOTokenInterface(tatoAddress).approve(rebaser_, uint256(-1));\n        emit NewRebaser(oldRebaser, rebaser_);\n    }\n\n    /** @notice sets the pendingGov\n     * @param pendingGov_ The address of the rebaser contract to use for authentication.\n     */\n    function _setPendingGov(address pendingGov_)\n        external\n        onlyGov\n    {\n        address oldPendingGov = pendingGov;\n        pendingGov = pendingGov_;\n        emit NewPendingGov(oldPendingGov, pendingGov_);\n    }\n\n    /**\n     * @notice lets msg.sender accept governance\n     */\n    function _acceptGov()\n        external\n    {\n        require(msg.sender == pendingGov, \"!pending\");\n        address oldGov = gov;\n        gov = pendingGov;\n        pendingGov = address(0);\n        emit NewGov(oldGov, gov);\n    }\n\n    /// @notice Moves all tokens to a new reserve contract\n    function migrateReserves(\n        address newReserve,\n        address[] memory tokens\n    )\n        public\n        onlyGov\n    {\n        for (uint256 i = 0; i < tokens.length; i++) {\n            IERC20 token =  IERC20(tokens[i]);\n            uint256 bal = token.balanceOf(address(this));\n            SafeERC20.safeTransfer(token, newReserve, bal);\n        }\n    }\n\n    /// @notice Gets the current amount of reserves token held by this contract\n    function reserves()\n        public\n        view\n        returns (uint256)\n    {\n        return IERC20(reserveToken).balanceOf(address(this));\n    }\n}\n",
  "sourcePath": "/home/aasim/Music/potato-protocol/contracts/reserves/TATOReserves.sol",
  "compiler": {
    "name": "solc",
    "version": "0.5.17+commit.d19bba13.Linux.g++"
  },
  "schemaVersion": "3.2.3",
  "updatedAt": "2020-09-09T03:17:25.289Z",
  "networkType": "ethereum",
  "devdoc": {
    "methods": {
      "_setPendingGov(address)": {
        "params": {
          "pendingGov_": "The address of the rebaser contract to use for authentication."
        }
      }
    }
  },
  "userdoc": {
    "methods": {
      "_acceptGov()": {
        "notice": "lets msg.sender accept governance"
      },
      "_setPendingGov(address)": {
        "notice": "sets the pendingGov"
      },
      "migrateReserves(address,address[])": {
        "notice": "Moves all tokens to a new reserve contract"
      },
      "reserves()": {
        "notice": "Gets the current amount of reserves token held by this contract"
      }
    }
  }
}